{
  "abi": [
    {
      "inputs": [],
      "stateMutability": "nonpayable",
      "type": "constructor"
    },
    {
      "anonymous": false,
      "inputs": [
        {
          "indexed": true,
          "internalType": "address",
          "name": "owner",
          "type": "address"
        },
        {
          "indexed": true,
          "internalType": "address",
          "name": "approved",
          "type": "address"
        },
        {
          "indexed": true,
          "internalType": "uint256",
          "name": "tokenId",
          "type": "uint256"
        }
      ],
      "name": "Approval",
      "type": "event"
    },
    {
      "anonymous": false,
      "inputs": [
        {
          "indexed": true,
          "internalType": "address",
          "name": "owner",
          "type": "address"
        },
        {
          "indexed": true,
          "internalType": "address",
          "name": "operator",
          "type": "address"
        },
        {
          "indexed": false,
          "internalType": "bool",
          "name": "approved",
          "type": "bool"
        }
      ],
      "name": "ApprovalForAll",
      "type": "event"
    },
    {
      "anonymous": false,
      "inputs": [
        {
          "indexed": false,
          "internalType": "uint256",
          "name": "_fromTokenId",
          "type": "uint256"
        },
        {
          "indexed": false,
          "internalType": "uint256",
          "name": "_toTokenId",
          "type": "uint256"
        }
      ],
      "name": "BatchMetadataUpdate",
      "type": "event"
    },
    {
      "anonymous": false,
      "inputs": [
        {
          "indexed": false,
          "internalType": "uint256",
          "name": "_tokenId",
          "type": "uint256"
        }
      ],
      "name": "MetadataUpdate",
      "type": "event"
    },
    {
      "anonymous": false,
      "inputs": [
        {
          "indexed": true,
          "internalType": "address",
          "name": "sender",
          "type": "address"
        },
        {
          "indexed": true,
          "internalType": "uint256",
          "name": "tokenId",
          "type": "uint256"
        },
        {
          "indexed": false,
          "internalType": "string",
          "name": "tokenURI",
          "type": "string"
        }
      ],
      "name": "NewStoryTellerFRC721NFTMinted",
      "type": "event"
    },
    {
      "anonymous": false,
      "inputs": [
        {
          "indexed": true,
          "internalType": "address",
          "name": "from",
          "type": "address"
        },
        {
          "indexed": true,
          "internalType": "address",
          "name": "to",
          "type": "address"
        },
        {
          "indexed": true,
          "internalType": "uint256",
          "name": "tokenId",
          "type": "uint256"
        }
      ],
      "name": "Transfer",
      "type": "event"
    },
    {
      "inputs": [
        {
          "internalType": "address",
          "name": "to",
          "type": "address"
        },
        {
          "internalType": "uint256",
          "name": "tokenId",
          "type": "uint256"
        }
      ],
      "name": "approve",
      "outputs": [],
      "stateMutability": "nonpayable",
      "type": "function"
    },
    {
      "inputs": [
        {
          "internalType": "address",
          "name": "owner",
          "type": "address"
        }
      ],
      "name": "balanceOf",
      "outputs": [
        {
          "internalType": "uint256",
          "name": "",
          "type": "uint256"
        }
      ],
      "stateMutability": "view",
      "type": "function"
    },
    {
      "inputs": [
        {
          "internalType": "uint256",
          "name": "tokenId",
          "type": "uint256"
        }
      ],
      "name": "getApproved",
      "outputs": [
        {
          "internalType": "address",
          "name": "",
          "type": "address"
        }
      ],
      "stateMutability": "view",
      "type": "function"
    },
    {
      "inputs": [],
      "name": "getNFTCollection",
      "outputs": [
        {
          "components": [
            {
              "internalType": "address",
              "name": "owner",
              "type": "address"
            },
            {
              "internalType": "string",
              "name": "tokenURI",
              "type": "string"
            },
            {
              "internalType": "uint256",
              "name": "tokenId",
              "type": "uint256"
            }
          ],
          "internalType": "struct StoryTellerFRC721.storyTellerFRC721NFT[]",
          "name": "",
          "type": "tuple[]"
        }
      ],
      "stateMutability": "view",
      "type": "function"
    },
    {
      "inputs": [
        {
          "internalType": "address",
          "name": "owner",
          "type": "address"
        }
      ],
      "name": "getNFTCollectionByOwner",
      "outputs": [
        {
          "components": [
            {
              "internalType": "address",
              "name": "owner",
              "type": "address"
            },
            {
              "internalType": "string",
              "name": "tokenURI",
              "type": "string"
            },
            {
              "internalType": "uint256",
              "name": "tokenId",
              "type": "uint256"
            }
          ],
          "internalType": "struct StoryTellerFRC721.storyTellerFRC721NFT[]",
          "name": "",
          "type": "tuple[]"
        }
      ],
      "stateMutability": "view",
      "type": "function"
    },
    {
      "inputs": [
        {
          "internalType": "address",
          "name": "owner",
          "type": "address"
        },
        {
          "internalType": "address",
          "name": "operator",
          "type": "address"
        }
      ],
      "name": "isApprovedForAll",
      "outputs": [
        {
          "internalType": "bool",
          "name": "",
          "type": "bool"
        }
      ],
      "stateMutability": "view",
      "type": "function"
    },
    {
      "inputs": [
        {
          "internalType": "address",
          "name": "owner",
          "type": "address"
        },
        {
          "internalType": "string[]",
          "name": "ipfsMetadata",
          "type": "string[]"
        }
      ],
      "name": "mintMultipleStoryTellerNFTs",
      "outputs": [
        {
          "internalType": "uint256[]",
          "name": "",
          "type": "uint256[]"
        }
      ],
      "stateMutability": "nonpayable",
      "type": "function"
    },
    {
      "inputs": [
        {
          "internalType": "address",
          "name": "owner",
          "type": "address"
        },
        {
          "internalType": "string",
          "name": "ipfsURI",
          "type": "string"
        }
      ],
      "name": "mintStoryTellerNFT",
      "outputs": [
        {
          "internalType": "uint256",
          "name": "",
          "type": "uint256"
        }
      ],
      "stateMutability": "nonpayable",
      "type": "function"
    },
    {
      "inputs": [],
      "name": "name",
      "outputs": [
        {
          "internalType": "string",
          "name": "",
          "type": "string"
        }
      ],
      "stateMutability": "view",
      "type": "function"
    },
    {
      "inputs": [
        {
          "internalType": "uint256",
          "name": "",
          "type": "uint256"
        }
      ],
      "name": "nftCollection",
      "outputs": [
        {
          "internalType": "address",
          "name": "owner",
          "type": "address"
        },
        {
          "internalType": "string",
          "name": "tokenURI",
          "type": "string"
        },
        {
          "internalType": "uint256",
          "name": "tokenId",
          "type": "uint256"
        }
      ],
      "stateMutability": "view",
      "type": "function"
    },
    {
      "inputs": [
        {
          "internalType": "address",
          "name": "",
          "type": "address"
        },
        {
          "internalType": "uint256",
          "name": "",
          "type": "uint256"
        }
      ],
      "name": "nftCollectionByOwner",
      "outputs": [
        {
          "internalType": "address",
          "name": "owner",
          "type": "address"
        },
        {
          "internalType": "string",
          "name": "tokenURI",
          "type": "string"
        },
        {
          "internalType": "uint256",
          "name": "tokenId",
          "type": "uint256"
        }
      ],
      "stateMutability": "view",
      "type": "function"
    },
    {
      "inputs": [
        {
          "internalType": "uint256",
          "name": "tokenId",
          "type": "uint256"
        }
      ],
      "name": "ownerOf",
      "outputs": [
        {
          "internalType": "address",
          "name": "",
          "type": "address"
        }
      ],
      "stateMutability": "view",
      "type": "function"
    },
    {
      "inputs": [
        {
          "internalType": "address",
          "name": "from",
          "type": "address"
        },
        {
          "internalType": "address",
          "name": "to",
          "type": "address"
        },
        {
          "internalType": "uint256",
          "name": "tokenId",
          "type": "uint256"
        }
      ],
      "name": "safeTransferFrom",
      "outputs": [],
      "stateMutability": "nonpayable",
      "type": "function"
    },
    {
      "inputs": [
        {
          "internalType": "address",
          "name": "from",
          "type": "address"
        },
        {
          "internalType": "address",
          "name": "to",
          "type": "address"
        },
        {
          "internalType": "uint256",
          "name": "tokenId",
          "type": "uint256"
        },
        {
          "internalType": "bytes",
          "name": "data",
          "type": "bytes"
        }
      ],
      "name": "safeTransferFrom",
      "outputs": [],
      "stateMutability": "nonpayable",
      "type": "function"
    },
    {
      "inputs": [
        {
          "internalType": "address",
          "name": "operator",
          "type": "address"
        },
        {
          "internalType": "bool",
          "name": "approved",
          "type": "bool"
        }
      ],
      "name": "setApprovalForAll",
      "outputs": [],
      "stateMutability": "nonpayable",
      "type": "function"
    },
    {
      "inputs": [
        {
          "internalType": "bytes4",
          "name": "interfaceId",
          "type": "bytes4"
        }
      ],
      "name": "supportsInterface",
      "outputs": [
        {
          "internalType": "bool",
          "name": "",
          "type": "bool"
        }
      ],
      "stateMutability": "view",
      "type": "function"
    },
    {
      "inputs": [],
      "name": "symbol",
      "outputs": [
        {
          "internalType": "string",
          "name": "",
          "type": "string"
        }
      ],
      "stateMutability": "view",
      "type": "function"
    },
    {
      "inputs": [
        {
          "internalType": "uint256",
          "name": "tokenId",
          "type": "uint256"
        }
      ],
      "name": "tokenURI",
      "outputs": [
        {
          "internalType": "string",
          "name": "",
          "type": "string"
        }
      ],
      "stateMutability": "view",
      "type": "function"
    },
    {
      "inputs": [
        {
          "internalType": "address",
          "name": "from",
          "type": "address"
        },
        {
          "internalType": "address",
          "name": "to",
          "type": "address"
        },
        {
          "internalType": "uint256",
          "name": "tokenId",
          "type": "uint256"
        }
      ],
      "name": "transferFrom",
      "outputs": [],
      "stateMutability": "nonpayable",
      "type": "function"
    }
  ],
  "bytecode": {
    "object": "0x60806040523480156200001157600080fd5b506040518060400160405280601081526020016f53746f727954656c6c6572204e46547360801b8152506040518060400160405280600381526020016214d51560ea1b815250816000908162000068919062000125565b50600162000077828262000125565b505050620001f1565b634e487b7160e01b600052604160045260246000fd5b600181811c90821680620000ab57607f821691505b602082108103620000cc57634e487b7160e01b600052602260045260246000fd5b50919050565b601f8211156200012057600081815260208120601f850160051c81016020861015620000fb5750805b601f850160051c820191505b818110156200011c5782815560010162000107565b5050505b505050565b81516001600160401b0381111562000141576200014162000080565b620001598162000152845462000096565b84620000d2565b602080601f831160018114620001915760008415620001785750858301515b600019600386901b1c1916600185901b1785556200011c565b600085815260208120601f198616915b82811015620001c257888601518255948401946001909101908401620001a1565b5085821015620001e15787850151600019600388901b60f8161c191681555b5050505050600190811b01905550565b611eb580620002016000396000f3fe608060405234801561001057600080fd5b50600436106101215760003560e01c80636352211e116100ad578063b88d4fde11610071578063b88d4fde1461028d578063c87b56dd146102a0578063d2446af5146102b3578063e985e9c5146102c6578063fedea0231461030257600080fd5b80636352211e1461022a57806370a082311461023d5780637c711b271461025057806395d89b4114610272578063a22cb4651461027a57600080fd5b8063095ea7b3116100f4578063095ea7b3146101ae57806323b872dd146101c3578063275cf298146101d657806336945747146101f657806342842e0e1461021757600080fd5b806301ffc9a71461012657806302243ee71461014e57806306fdde031461016e578063081812fc14610183575b600080fd5b610139610134366004611685565b61030a565b60405190151581526020015b60405180910390f35b61016161015c36600461177d565b610335565b6040516101459190611853565b6101766103e7565b60405161014591906118e7565b6101966101913660046118fa565b610479565b6040516001600160a01b039091168152602001610145565b6101c16101bc366004611913565b6104a0565b005b6101c16101d136600461193d565b6105ba565b6101e96101e4366004611979565b6105eb565b6040516101459190611994565b610209610204366004611a20565b610712565b604051908152602001610145565b6101c161022536600461193d565b6108a9565b6101966102383660046118fa565b6108c4565b61020961024b366004611979565b610924565b61026361025e3660046118fa565b6109aa565b60405161014593929190611a6e565b610176610a72565b6101c1610288366004611aa2565b610a81565b6101c161029b366004611ade565b610a90565b6101766102ae3660046118fa565b610ac8565b6102636102c1366004611913565b610bd8565b6101396102d4366004611b5a565b6001600160a01b03918216600090815260056020908152604080832093909416825291909152205460ff1690565b6101e9610c25565b60006001600160e01b03198216632483248360e11b148061032f575061032f82610d36565b92915050565b805160609060008167ffffffffffffffff811115610355576103556116be565b60405190808252806020026020018201604052801561037e578160200160208202803683370190505b50905060005b828110156103de576103af868683815181106103a2576103a2611b8d565b6020026020010151610712565b8282815181106103c1576103c1611b8d565b6020908102919091010152806103d681611ba3565b915050610384565b50949350505050565b6060600080546103f690611bca565b80601f016020809104026020016040519081016040528092919081815260200182805461042290611bca565b801561046f5780601f106104445761010080835404028352916020019161046f565b820191906000526020600020905b81548152906001019060200180831161045257829003601f168201915b5050505050905090565b600061048482610d86565b506000908152600460205260409020546001600160a01b031690565b60006104ab826108c4565b9050806001600160a01b0316836001600160a01b03160361051d5760405162461bcd60e51b815260206004820152602160248201527f4552433732313a20617070726f76616c20746f2063757272656e74206f776e656044820152603960f91b60648201526084015b60405180910390fd5b336001600160a01b0382161480610539575061053981336102d4565b6105ab5760405162461bcd60e51b815260206004820152603d60248201527f4552433732313a20617070726f76652063616c6c6572206973206e6f7420746f60448201527f6b656e206f776e6572206f7220617070726f76656420666f7220616c6c0000006064820152608401610514565b6105b58383610de8565b505050565b6105c43382610e56565b6105e05760405162461bcd60e51b815260040161051490611c04565b6105b5838383610ed4565b6001600160a01b0381166000908152600960209081526040808320805482518185028101850190935280835260609492939192909184015b8282101561070757600084815260209081902060408051606081019091526003850290910180546001600160a01b03168252600181018054929391929184019161066c90611bca565b80601f016020809104026020016040519081016040528092919081815260200182805461069890611bca565b80156106e55780601f106106ba576101008083540402835291602001916106e5565b820191906000526020600020905b8154815290600101906020018083116106c857829003601f168201915b5050505050815260200160028201548152505081526020019060010190610623565b505050509050919050565b60008061071e60075490565b60408051606081018252338152602081018690529081018290529091506107458583611038565b61074f82856111c3565b6001600160a01b038581166000908152600960209081526040822080546001808201835591845292829020855160039094020180546001600160a01b031916939094169290921783558301518392918201906107ab9082611c9f565b506040820151816002015550506107c6600780546001019055565b6008805460018101825560009190915281517ff3f7a9fe364faab93b216da50a3214154f22a0a2b415b23a84c8169e8b636ee3600390920291820180546001600160a01b0319166001600160a01b03909216919091178155602083015183927ff3f7a9fe364faab93b216da50a3214154f22a0a2b415b23a84c8169e8b636ee401906108529082611c9f565b5060408201518160020155505081336001600160a01b03167fd8d21d3171cde69297abc36f34167c9210d09c268cd85749de91310fa78d4abb8660405161089991906118e7565b60405180910390a3509392505050565b6105b583838360405180602001604052806000815250610a90565b6000818152600260205260408120546001600160a01b03168061032f5760405162461bcd60e51b8152602060048201526018602482015277115490cdcc8c4e881a5b9d985b1a59081d1bdad95b88125160421b6044820152606401610514565b60006001600160a01b03821661098e5760405162461bcd60e51b815260206004820152602960248201527f4552433732313a2061646472657373207a65726f206973206e6f7420612076616044820152683634b21037bbb732b960b91b6064820152608401610514565b506001600160a01b031660009081526003602052604090205490565b600881815481106109ba57600080fd5b6000918252602090912060039091020180546001820180546001600160a01b039092169350906109e990611bca565b80601f0160208091040260200160405190810160405280929190818152602001828054610a1590611bca565b8015610a625780601f10610a3757610100808354040283529160200191610a62565b820191906000526020600020905b815481529060010190602001808311610a4557829003601f168201915b5050505050908060020154905083565b6060600180546103f690611bca565b610a8c33838361128e565b5050565b610a9a3383610e56565b610ab65760405162461bcd60e51b815260040161051490611c04565b610ac28484848461135c565b50505050565b6060610ad382610d86565b60008281526006602052604081208054610aec90611bca565b80601f0160208091040260200160405190810160405280929190818152602001828054610b1890611bca565b8015610b655780601f10610b3a57610100808354040283529160200191610b65565b820191906000526020600020905b815481529060010190602001808311610b4857829003601f168201915b505050505090506000610b8360408051602081019091526000815290565b90508051600003610b95575092915050565b815115610bc7578082604051602001610baf929190611d5f565b60405160208183030381529060405292505050919050565b610bd08461138f565b949350505050565b60096020528160005260406000208181548110610bf457600080fd5b6000918252602090912060039091020180546001820180546001600160a01b0390921694509192506109e990611bca565b60606008805480602002602001604051908101604052809291908181526020016000905b82821015610d2d57600084815260209081902060408051606081019091526003850290910180546001600160a01b031682526001810180549293919291840191610c9290611bca565b80601f0160208091040260200160405190810160405280929190818152602001828054610cbe90611bca565b8015610d0b5780601f10610ce057610100808354040283529160200191610d0b565b820191906000526020600020905b815481529060010190602001808311610cee57829003601f168201915b5050505050815260200160028201548152505081526020019060010190610c49565b50505050905090565b60006001600160e01b031982166380ac58cd60e01b1480610d6757506001600160e01b03198216635b5e139f60e01b145b8061032f57506301ffc9a760e01b6001600160e01b031983161461032f565b6000818152600260205260409020546001600160a01b0316610de55760405162461bcd60e51b8152602060048201526018602482015277115490cdcc8c4e881a5b9d985b1a59081d1bdad95b88125160421b6044820152606401610514565b50565b600081815260046020526040902080546001600160a01b0319166001600160a01b0384169081179091558190610e1d826108c4565b6001600160a01b03167f8c5be1e5ebec7d5bd14f71427d1e84f3dd0314c0f7b2291e5b200ac8c7c3b92560405160405180910390a45050565b600080610e62836108c4565b9050806001600160a01b0316846001600160a01b03161480610ea957506001600160a01b0380821660009081526005602090815260408083209388168352929052205460ff165b80610bd05750836001600160a01b0316610ec284610479565b6001600160a01b031614949350505050565b826001600160a01b0316610ee7826108c4565b6001600160a01b031614610f0d5760405162461bcd60e51b815260040161051490611d8e565b6001600160a01b038216610f6f5760405162461bcd60e51b8152602060048201526024808201527f4552433732313a207472616e7366657220746f20746865207a65726f206164646044820152637265737360e01b6064820152608401610514565b826001600160a01b0316610f82826108c4565b6001600160a01b031614610fa85760405162461bcd60e51b815260040161051490611d8e565b600081815260046020908152604080832080546001600160a01b03199081169091556001600160a01b0387811680865260038552838620805460001901905590871680865283862080546001019055868652600290945282852080549092168417909155905184937fddf252ad1be2c89b69c2b068fc378daa952ba7f163c4a11628f55a4df523b3ef91a4505050565b6001600160a01b03821661108e5760405162461bcd60e51b815260206004820181905260248201527f4552433732313a206d696e7420746f20746865207a65726f20616464726573736044820152606401610514565b6000818152600260205260409020546001600160a01b0316156110f35760405162461bcd60e51b815260206004820152601c60248201527f4552433732313a20746f6b656e20616c7265616479206d696e746564000000006044820152606401610514565b6000818152600260205260409020546001600160a01b0316156111585760405162461bcd60e51b815260206004820152601c60248201527f4552433732313a20746f6b656e20616c7265616479206d696e746564000000006044820152606401610514565b6001600160a01b038216600081815260036020908152604080832080546001019055848352600290915280822080546001600160a01b0319168417905551839291907fddf252ad1be2c89b69c2b068fc378daa952ba7f163c4a11628f55a4df523b3ef908290a45050565b6000828152600260205260409020546001600160a01b031661123e5760405162461bcd60e51b815260206004820152602e60248201527f45524337323155524953746f726167653a2055524920736574206f66206e6f6e60448201526d32bc34b9ba32b73a103a37b5b2b760911b6064820152608401610514565b60008281526006602052604090206112568282611c9f565b506040518281527ff8e1a15aba9398e019f0b49df1a4fde98ee17ae345cb5f6b5e2c27f5033e8ce79060200160405180910390a15050565b816001600160a01b0316836001600160a01b0316036112ef5760405162461bcd60e51b815260206004820152601960248201527f4552433732313a20617070726f766520746f2063616c6c6572000000000000006044820152606401610514565b6001600160a01b03838116600081815260056020908152604080832094871680845294825291829020805460ff191686151590811790915591519182527f17307eab39ab6107e8899845ad3d59bd9653f200f220920489ca2b5937696c31910160405180910390a3505050565b611367848484610ed4565b61137384848484611403565b610ac25760405162461bcd60e51b815260040161051490611dd3565b606061139a82610d86565b60006113b160408051602081019091526000815290565b905060008151116113d157604051806020016040528060008152506113fc565b806113db84611504565b6040516020016113ec929190611d5f565b6040516020818303038152906040525b9392505050565b60006001600160a01b0384163b156114f957604051630a85bd0160e11b81526001600160a01b0385169063150b7a0290611447903390899088908890600401611e25565b6020604051808303816000875af1925050508015611482575060408051601f3d908101601f1916820190925261147f91810190611e62565b60015b6114df573d8080156114b0576040519150601f19603f3d011682016040523d82523d6000602084013e6114b5565b606091505b5080516000036114d75760405162461bcd60e51b815260040161051490611dd3565b805181602001fd5b6001600160e01b031916630a85bd0160e11b149050610bd0565b506001949350505050565b6060600061151183611597565b600101905060008167ffffffffffffffff811115611531576115316116be565b6040519080825280601f01601f19166020018201604052801561155b576020820181803683370190505b5090508181016020015b600019016f181899199a1a9b1b9c1cb0b131b232b360811b600a86061a8153600a850494508461156557509392505050565b60008072184f03e93ff9f4daa797ed6e38ed64bf6a1f0160401b83106115d65772184f03e93ff9f4daa797ed6e38ed64bf6a1f0160401b830492506040015b6d04ee2d6d415b85acef81000000008310611602576d04ee2d6d415b85acef8100000000830492506020015b662386f26fc10000831061162057662386f26fc10000830492506010015b6305f5e1008310611638576305f5e100830492506008015b612710831061164c57612710830492506004015b6064831061165e576064830492506002015b600a831061032f5760010192915050565b6001600160e01b031981168114610de557600080fd5b60006020828403121561169757600080fd5b81356113fc8161166f565b80356001600160a01b03811681146116b957600080fd5b919050565b634e487b7160e01b600052604160045260246000fd5b604051601f8201601f1916810167ffffffffffffffff811182821017156116fd576116fd6116be565b604052919050565b600067ffffffffffffffff83111561171f5761171f6116be565b611732601f8401601f19166020016116d4565b905082815283838301111561174657600080fd5b828260208301376000602084830101529392505050565b600082601f83011261176e57600080fd5b6113fc83833560208501611705565b6000806040838503121561179057600080fd5b611799836116a2565b915060208084013567ffffffffffffffff808211156117b757600080fd5b818601915086601f8301126117cb57600080fd5b8135818111156117dd576117dd6116be565b8060051b6117ec8582016116d4565b918252838101850191858101908a84111561180657600080fd5b86860192505b83831015611842578235858111156118245760008081fd5b6118328c89838a010161175d565b835250918601919086019061180c565b809750505050505050509250929050565b6020808252825182820181905260009190848201906040850190845b8181101561188b5783518352928401929184019160010161186f565b50909695505050505050565b60005b838110156118b257818101518382015260200161189a565b50506000910152565b600081518084526118d3816020860160208601611897565b601f01601f19169290920160200192915050565b6020815260006113fc60208301846118bb565b60006020828403121561190c57600080fd5b5035919050565b6000806040838503121561192657600080fd5b61192f836116a2565b946020939093013593505050565b60008060006060848603121561195257600080fd5b61195b846116a2565b9250611969602085016116a2565b9150604084013590509250925092565b60006020828403121561198b57600080fd5b6113fc826116a2565b60006020808301818452808551808352604092508286019150828160051b87010184880160005b83811015611a1257888303603f19018552815180516001600160a01b03168452878101516060898601819052906119f4828701826118bb565b928901519589019590955250948701949250908601906001016119bb565b509098975050505050505050565b60008060408385031215611a3357600080fd5b611a3c836116a2565b9150602083013567ffffffffffffffff811115611a5857600080fd5b611a648582860161175d565b9150509250929050565b6001600160a01b0384168152606060208201819052600090611a92908301856118bb565b9050826040830152949350505050565b60008060408385031215611ab557600080fd5b611abe836116a2565b915060208301358015158114611ad357600080fd5b809150509250929050565b60008060008060808587031215611af457600080fd5b611afd856116a2565b9350611b0b602086016116a2565b925060408501359150606085013567ffffffffffffffff811115611b2e57600080fd5b8501601f81018713611b3f57600080fd5b611b4e87823560208401611705565b91505092959194509250565b60008060408385031215611b6d57600080fd5b611b76836116a2565b9150611b84602084016116a2565b90509250929050565b634e487b7160e01b600052603260045260246000fd5b600060018201611bc357634e487b7160e01b600052601160045260246000fd5b5060010190565b600181811c90821680611bde57607f821691505b602082108103611bfe57634e487b7160e01b600052602260045260246000fd5b50919050565b6020808252602d908201527f4552433732313a2063616c6c6572206973206e6f7420746f6b656e206f776e6560408201526c1c881bdc88185c1c1c9bdd9959609a1b606082015260800190565b601f8211156105b557600081815260208120601f850160051c81016020861015611c785750805b601f850160051c820191505b81811015611c9757828155600101611c84565b505050505050565b815167ffffffffffffffff811115611cb957611cb96116be565b611ccd81611cc78454611bca565b84611c51565b602080601f831160018114611d025760008415611cea5750858301515b600019600386901b1c1916600185901b178555611c97565b600085815260208120601f198616915b82811015611d3157888601518255948401946001909101908401611d12565b5085821015611d4f5787850151600019600388901b60f8161c191681555b5050505050600190811b01905550565b60008351611d71818460208801611897565b835190830190611d85818360208801611897565b01949350505050565b60208082526025908201527f4552433732313a207472616e736665722066726f6d20696e636f72726563742060408201526437bbb732b960d91b606082015260800190565b60208082526032908201527f4552433732313a207472616e7366657220746f206e6f6e20455243373231526560408201527131b2b4bb32b91034b6b83632b6b2b73a32b960711b606082015260800190565b6001600160a01b0385811682528416602082015260408101839052608060608201819052600090611e58908301846118bb565b9695505050505050565b600060208284031215611e7457600080fd5b81516113fc8161166f56fea264697066735822122037f50b27471ee29332a58847a40c409691cfe4f50f770fcc6a94c8d3c317e92d64736f6c63430008140033",
    "linkReferences": {}
  },
  "methodIdentifiers": {
    "approve(address,uint256)": "095ea7b3",
    "balanceOf(address)": "70a08231",
    "getApproved(uint256)": "081812fc",
    "getNFTCollection()": "fedea023",
    "getNFTCollectionByOwner(address)": "275cf298",
    "isApprovedForAll(address,address)": "e985e9c5",
    "mintMultipleStoryTellerNFTs(address,string[])": "02243ee7",
    "mintStoryTellerNFT(address,string)": "36945747",
    "name()": "06fdde03",
    "nftCollection(uint256)": "7c711b27",
    "nftCollectionByOwner(address,uint256)": "d2446af5",
    "ownerOf(uint256)": "6352211e",
    "safeTransferFrom(address,address,uint256)": "42842e0e",
    "safeTransferFrom(address,address,uint256,bytes)": "b88d4fde",
    "setApprovalForAll(address,bool)": "a22cb465",
    "supportsInterface(bytes4)": "01ffc9a7",
    "symbol()": "95d89b41",
    "tokenURI(uint256)": "c87b56dd",
    "transferFrom(address,address,uint256)": "23b872dd"
  },
  "id": 35
}